{
  "_format": "hh-sol-artifact-1",
  "contractName": "CommitmentService",
  "sourceName": "contracts/CommitmentService.sol",
  "abi": [
    {
      "inputs": [],
      "stateMutability": "nonpayable",
      "type": "constructor"
    },
    {
      "inputs": [],
      "name": "ExcessiveInvalidation",
      "type": "error"
    },
    {
      "inputs": [],
      "name": "InvalidBatch",
      "type": "error"
    },
    {
      "inputs": [],
      "name": "InvalidNonce",
      "type": "error"
    },
    {
      "inputs": [],
      "name": "InvalidSet",
      "type": "error"
    },
    {
      "inputs": [],
      "name": "InvalidShortString",
      "type": "error"
    },
    {
      "inputs": [],
      "name": "InvalidSignature",
      "type": "error"
    },
    {
      "inputs": [
        {
          "internalType": "string",
          "name": "str",
          "type": "string"
        }
      ],
      "name": "StringTooLong",
      "type": "error"
    },
    {
      "inputs": [],
      "name": "Unauthorized",
      "type": "error"
    },
    {
      "anonymous": false,
      "inputs": [
        {
          "indexed": true,
          "internalType": "address",
          "name": "user",
          "type": "address"
        },
        {
          "indexed": true,
          "internalType": "bytes32",
          "name": "objectCid",
          "type": "bytes32"
        },
        {
          "indexed": false,
          "internalType": "uint256",
          "name": "timestamp",
          "type": "uint256"
        }
      ],
      "name": "AddObject",
      "type": "event"
    },
    {
      "anonymous": false,
      "inputs": [
        {
          "indexed": true,
          "internalType": "address",
          "name": "user",
          "type": "address"
        },
        {
          "indexed": true,
          "internalType": "bytes32",
          "name": "setCid",
          "type": "bytes32"
        }
      ],
      "name": "AddSet",
      "type": "event"
    },
    {
      "anonymous": false,
      "inputs": [
        {
          "indexed": true,
          "internalType": "address",
          "name": "user",
          "type": "address"
        },
        {
          "indexed": true,
          "internalType": "bytes32",
          "name": "setCid",
          "type": "bytes32"
        },
        {
          "indexed": true,
          "internalType": "bytes32",
          "name": "objectCid",
          "type": "bytes32"
        },
        {
          "indexed": false,
          "internalType": "uint256",
          "name": "timestamp",
          "type": "uint256"
        }
      ],
      "name": "AddSetObject",
      "type": "event"
    },
    {
      "anonymous": false,
      "inputs": [],
      "name": "EIP712DomainChanged",
      "type": "event"
    },
    {
      "anonymous": false,
      "inputs": [
        {
          "indexed": true,
          "internalType": "address",
          "name": "user",
          "type": "address"
        },
        {
          "indexed": true,
          "internalType": "address",
          "name": "delegate",
          "type": "address"
        }
      ],
      "name": "Grant",
      "type": "event"
    },
    {
      "anonymous": false,
      "inputs": [
        {
          "indexed": true,
          "internalType": "address",
          "name": "user",
          "type": "address"
        },
        {
          "indexed": true,
          "internalType": "address",
          "name": "delegate",
          "type": "address"
        },
        {
          "indexed": false,
          "internalType": "uint256",
          "name": "nonce",
          "type": "uint256"
        }
      ],
      "name": "GrantBySignature",
      "type": "event"
    },
    {
      "anonymous": false,
      "inputs": [
        {
          "indexed": true,
          "internalType": "address",
          "name": "user",
          "type": "address"
        },
        {
          "indexed": false,
          "internalType": "uint256",
          "name": "newNonce",
          "type": "uint256"
        },
        {
          "indexed": false,
          "internalType": "uint256",
          "name": "oldNonce",
          "type": "uint256"
        }
      ],
      "name": "NonceInvalidation",
      "type": "event"
    },
    {
      "anonymous": false,
      "inputs": [
        {
          "indexed": true,
          "internalType": "address",
          "name": "user",
          "type": "address"
        },
        {
          "indexed": true,
          "internalType": "address",
          "name": "delegate",
          "type": "address"
        }
      ],
      "name": "Revoke",
      "type": "event"
    },
    {
      "anonymous": false,
      "inputs": [
        {
          "indexed": true,
          "internalType": "address",
          "name": "user",
          "type": "address"
        },
        {
          "indexed": true,
          "internalType": "address",
          "name": "delegate",
          "type": "address"
        },
        {
          "indexed": false,
          "internalType": "uint256",
          "name": "nonce",
          "type": "uint256"
        }
      ],
      "name": "RevokeBySignature",
      "type": "event"
    },
    {
      "inputs": [
        {
          "internalType": "bytes32",
          "name": "objectCid",
          "type": "bytes32"
        }
      ],
      "name": "addObject",
      "outputs": [],
      "stateMutability": "nonpayable",
      "type": "function"
    },
    {
      "inputs": [
        {
          "internalType": "bytes32",
          "name": "setCid",
          "type": "bytes32"
        }
      ],
      "name": "addSet",
      "outputs": [],
      "stateMutability": "nonpayable",
      "type": "function"
    },
    {
      "inputs": [
        {
          "internalType": "bytes32",
          "name": "setCid",
          "type": "bytes32"
        },
        {
          "internalType": "bytes32",
          "name": "objectCid",
          "type": "bytes32"
        }
      ],
      "name": "addSetObject",
      "outputs": [],
      "stateMutability": "nonpayable",
      "type": "function"
    },
    {
      "inputs": [
        {
          "internalType": "bytes32",
          "name": "setCid",
          "type": "bytes32"
        },
        {
          "internalType": "bytes32[]",
          "name": "objectCids",
          "type": "bytes32[]"
        }
      ],
      "name": "addSetObjectsBatch",
      "outputs": [],
      "stateMutability": "nonpayable",
      "type": "function"
    },
    {
      "inputs": [
        {
          "internalType": "bytes32[]",
          "name": "setCids",
          "type": "bytes32[]"
        },
        {
          "internalType": "bytes32[]",
          "name": "objectCids",
          "type": "bytes32[]"
        }
      ],
      "name": "addSetsObjectsBatch",
      "outputs": [],
      "stateMutability": "nonpayable",
      "type": "function"
    },
    {
      "inputs": [
        {
          "internalType": "address",
          "name": "user",
          "type": "address"
        },
        {
          "internalType": "bytes32",
          "name": "objectCid",
          "type": "bytes32"
        }
      ],
      "name": "addUserObject",
      "outputs": [],
      "stateMutability": "nonpayable",
      "type": "function"
    },
    {
      "inputs": [
        {
          "internalType": "address",
          "name": "user",
          "type": "address"
        },
        {
          "internalType": "bytes32",
          "name": "setCid",
          "type": "bytes32"
        }
      ],
      "name": "addUserSet",
      "outputs": [],
      "stateMutability": "nonpayable",
      "type": "function"
    },
    {
      "inputs": [
        {
          "internalType": "address",
          "name": "user",
          "type": "address"
        },
        {
          "internalType": "bytes32",
          "name": "setCid",
          "type": "bytes32"
        },
        {
          "internalType": "bytes32",
          "name": "objectCid",
          "type": "bytes32"
        }
      ],
      "name": "addUserSetObject",
      "outputs": [],
      "stateMutability": "nonpayable",
      "type": "function"
    },
    {
      "inputs": [
        {
          "internalType": "address",
          "name": "user",
          "type": "address"
        },
        {
          "internalType": "bytes32",
          "name": "setCid",
          "type": "bytes32"
        },
        {
          "internalType": "bytes32[]",
          "name": "objectCids",
          "type": "bytes32[]"
        }
      ],
      "name": "addUserSetObjectsBatch",
      "outputs": [],
      "stateMutability": "nonpayable",
      "type": "function"
    },
    {
      "inputs": [
        {
          "internalType": "address",
          "name": "user",
          "type": "address"
        },
        {
          "internalType": "bytes32[]",
          "name": "setCids",
          "type": "bytes32[]"
        },
        {
          "internalType": "bytes32[]",
          "name": "objectCids",
          "type": "bytes32[]"
        }
      ],
      "name": "addUserSetsObjectsBatch",
      "outputs": [],
      "stateMutability": "nonpayable",
      "type": "function"
    },
    {
      "inputs": [
        {
          "internalType": "address[]",
          "name": "users",
          "type": "address[]"
        },
        {
          "internalType": "bytes32[]",
          "name": "setCids",
          "type": "bytes32[]"
        },
        {
          "internalType": "bytes32[]",
          "name": "objectCids",
          "type": "bytes32[]"
        }
      ],
      "name": "addUsersSetsObjectsBatch",
      "outputs": [],
      "stateMutability": "nonpayable",
      "type": "function"
    },
    {
      "inputs": [
        {
          "internalType": "address",
          "name": "user",
          "type": "address"
        }
      ],
      "name": "checkAuthority",
      "outputs": [
        {
          "internalType": "bool",
          "name": "",
          "type": "bool"
        }
      ],
      "stateMutability": "view",
      "type": "function"
    },
    {
      "inputs": [
        {
          "internalType": "address",
          "name": "",
          "type": "address"
        },
        {
          "internalType": "address",
          "name": "",
          "type": "address"
        }
      ],
      "name": "delegatedAuthority",
      "outputs": [
        {
          "internalType": "bool",
          "name": "",
          "type": "bool"
        }
      ],
      "stateMutability": "view",
      "type": "function"
    },
    {
      "inputs": [],
      "name": "eip712Domain",
      "outputs": [
        {
          "internalType": "bytes1",
          "name": "fields",
          "type": "bytes1"
        },
        {
          "internalType": "string",
          "name": "name",
          "type": "string"
        },
        {
          "internalType": "string",
          "name": "version",
          "type": "string"
        },
        {
          "internalType": "uint256",
          "name": "chainId",
          "type": "uint256"
        },
        {
          "internalType": "address",
          "name": "verifyingContract",
          "type": "address"
        },
        {
          "internalType": "bytes32",
          "name": "salt",
          "type": "bytes32"
        },
        {
          "internalType": "uint256[]",
          "name": "extensions",
          "type": "uint256[]"
        }
      ],
      "stateMutability": "view",
      "type": "function"
    },
    {
      "inputs": [
        {
          "components": [
            {
              "internalType": "address",
              "name": "from",
              "type": "address"
            },
            {
              "internalType": "uint256",
              "name": "nonce",
              "type": "uint256"
            },
            {
              "internalType": "bytes",
              "name": "data",
              "type": "bytes"
            }
          ],
          "internalType": "struct IForwarder.ForwardRequest",
          "name": "req",
          "type": "tuple"
        },
        {
          "internalType": "bytes",
          "name": "signature",
          "type": "bytes"
        }
      ],
      "name": "execute",
      "outputs": [
        {
          "internalType": "bool",
          "name": "",
          "type": "bool"
        },
        {
          "internalType": "bytes",
          "name": "",
          "type": "bytes"
        }
      ],
      "stateMutability": "nonpayable",
      "type": "function"
    },
    {
      "inputs": [
        {
          "internalType": "address",
          "name": "from",
          "type": "address"
        }
      ],
      "name": "getNonce",
      "outputs": [
        {
          "internalType": "uint256",
          "name": "",
          "type": "uint256"
        }
      ],
      "stateMutability": "view",
      "type": "function"
    },
    {
      "inputs": [
        {
          "internalType": "address",
          "name": "delegate",
          "type": "address"
        }
      ],
      "name": "grant",
      "outputs": [],
      "stateMutability": "nonpayable",
      "type": "function"
    },
    {
      "inputs": [
        {
          "components": [
            {
              "internalType": "address",
              "name": "delegate",
              "type": "address"
            },
            {
              "internalType": "uint256",
              "name": "nonce",
              "type": "uint256"
            }
          ],
          "internalType": "struct IDelegatedAuthority.DelegateData",
          "name": "delegateData",
          "type": "tuple"
        },
        {
          "internalType": "address",
          "name": "user",
          "type": "address"
        },
        {
          "internalType": "bytes",
          "name": "signature",
          "type": "bytes"
        }
      ],
      "name": "grantBySignature",
      "outputs": [],
      "stateMutability": "nonpayable",
      "type": "function"
    },
    {
      "inputs": [
        {
          "internalType": "uint48",
          "name": "newNonce",
          "type": "uint48"
        }
      ],
      "name": "invalidateNonces",
      "outputs": [],
      "stateMutability": "nonpayable",
      "type": "function"
    },
    {
      "inputs": [
        {
          "internalType": "bytes32",
          "name": "",
          "type": "bytes32"
        }
      ],
      "name": "objectCommitments",
      "outputs": [
        {
          "internalType": "bool",
          "name": "",
          "type": "bool"
        }
      ],
      "stateMutability": "view",
      "type": "function"
    },
    {
      "inputs": [
        {
          "internalType": "address",
          "name": "delegate",
          "type": "address"
        }
      ],
      "name": "revoke",
      "outputs": [],
      "stateMutability": "nonpayable",
      "type": "function"
    },
    {
      "inputs": [
        {
          "components": [
            {
              "internalType": "address",
              "name": "delegate",
              "type": "address"
            },
            {
              "internalType": "uint256",
              "name": "nonce",
              "type": "uint256"
            }
          ],
          "internalType": "struct IDelegatedAuthority.DelegateData",
          "name": "delegateData",
          "type": "tuple"
        },
        {
          "internalType": "address",
          "name": "user",
          "type": "address"
        },
        {
          "internalType": "bytes",
          "name": "signature",
          "type": "bytes"
        }
      ],
      "name": "revokeBySignature",
      "outputs": [],
      "stateMutability": "nonpayable",
      "type": "function"
    },
    {
      "inputs": [
        {
          "internalType": "address",
          "name": "",
          "type": "address"
        }
      ],
      "name": "userSetCidSums",
      "outputs": [
        {
          "internalType": "uint256",
          "name": "",
          "type": "uint256"
        }
      ],
      "stateMutability": "view",
      "type": "function"
    },
    {
      "inputs": [
        {
          "internalType": "address",
          "name": "",
          "type": "address"
        },
        {
          "internalType": "bytes32",
          "name": "",
          "type": "bytes32"
        }
      ],
      "name": "userSetCommitments",
      "outputs": [
        {
          "internalType": "bool",
          "name": "",
          "type": "bool"
        }
      ],
      "stateMutability": "view",
      "type": "function"
    },
    {
      "inputs": [
        {
          "internalType": "address",
          "name": "",
          "type": "address"
        },
        {
          "internalType": "bytes32",
          "name": "",
          "type": "bytes32"
        }
      ],
      "name": "userSetObjectCidSums",
      "outputs": [
        {
          "internalType": "uint256",
          "name": "",
          "type": "uint256"
        }
      ],
      "stateMutability": "view",
      "type": "function"
    },
    {
      "inputs": [
        {
          "components": [
            {
              "internalType": "address",
              "name": "from",
              "type": "address"
            },
            {
              "internalType": "uint256",
              "name": "nonce",
              "type": "uint256"
            },
            {
              "internalType": "bytes",
              "name": "data",
              "type": "bytes"
            }
          ],
          "internalType": "struct IForwarder.ForwardRequest",
          "name": "req",
          "type": "tuple"
        },
        {
          "internalType": "bytes",
          "name": "signature",
          "type": "bytes"
        }
      ],
      "name": "verify",
      "outputs": [
        {
          "internalType": "bool",
          "name": "",
          "type": "bool"
        }
      ],
      "stateMutability": "view",
      "type": "function"
    },
    {
      "inputs": [
        {
          "internalType": "address",
          "name": "user",
          "type": "address"
        },
        {
          "internalType": "bytes32",
          "name": "objectCid",
          "type": "bytes32"
        },
        {
          "internalType": "uint256",
          "name": "timestamp",
          "type": "uint256"
        }
      ],
      "name": "verifyUserObject",
      "outputs": [
        {
          "internalType": "bool",
          "name": "",
          "type": "bool"
        }
      ],
      "stateMutability": "view",
      "type": "function"
    },
    {
      "inputs": [
        {
          "internalType": "address",
          "name": "user",
          "type": "address"
        },
        {
          "internalType": "bytes32[]",
          "name": "objectCids",
          "type": "bytes32[]"
        },
        {
          "internalType": "uint256[]",
          "name": "timestamps",
          "type": "uint256[]"
        }
      ],
      "name": "verifyUserObjectsBatch",
      "outputs": [
        {
          "internalType": "bool[]",
          "name": "ret",
          "type": "bool[]"
        }
      ],
      "stateMutability": "view",
      "type": "function"
    },
    {
      "inputs": [
        {
          "internalType": "address",
          "name": "user",
          "type": "address"
        },
        {
          "internalType": "bytes32",
          "name": "setCid",
          "type": "bytes32"
        },
        {
          "internalType": "uint256",
          "name": "userSetObjectsCidSum",
          "type": "uint256"
        }
      ],
      "name": "verifyUserSetObjectsCidSum",
      "outputs": [
        {
          "internalType": "bool",
          "name": "",
          "type": "bool"
        }
      ],
      "stateMutability": "view",
      "type": "function"
    },
    {
      "inputs": [
        {
          "internalType": "address",
          "name": "user",
          "type": "address"
        },
        {
          "internalType": "uint256",
          "name": "setCidSum",
          "type": "uint256"
        }
      ],
      "name": "verifyUserSets",
      "outputs": [
        {
          "internalType": "bool",
          "name": "",
          "type": "bool"
        }
      ],
      "stateMutability": "view",
      "type": "function"
    },
    {
      "inputs": [
        {
          "internalType": "address[]",
          "name": "users",
          "type": "address[]"
        },
        {
          "internalType": "bytes32[]",
          "name": "objectCids",
          "type": "bytes32[]"
        },
        {
          "internalType": "uint256[]",
          "name": "timestamps",
          "type": "uint256[]"
        }
      ],
      "name": "verifyUsersObjectsBatch",
      "outputs": [
        {
          "internalType": "bool[]",
          "name": "ret",
          "type": "bool[]"
        }
      ],
      "stateMutability": "view",
      "type": "function"
    }
  ],
  "bytecode": "0x6101606040523480156200001257600080fd5b5060405180604001604052806011815260200170436f6d6d69746d656e745365727669636560781b81525060405180604001604052806005815260200164302e302e3160d81b815250818181816200007a6000836200013960201b620016441790919060201c565b610120526200009781600162000139602090811b6200164417901c565b61014052815160208084019190912060e052815190820120610100524660a0526200012560e05161010051604080517f8b73c3c69bb8fe3d512ecc4cf759cc79239f7b179b0ffacaa9a75d522b39400f60208201529081019290925260608201524660808201523060a082015260009060c00160405160208183030381529060405280519060200120905090565b60805250503060c05250620003be92505050565b60006020835110156200015957620001518362000189565b905062000183565b826200017083620001d560201b620016751760201c565b906200017d90826200027d565b5060ff90505b92915050565b600080829050601f81511115620001c0578260405163305a27a960e01b8152600401620001b7919062000349565b60405180910390fd5b8051620001cd8262000399565b179392505050565b90565b634e487b7160e01b600052604160045260246000fd5b600181811c908216806200020357607f821691505b6020821081036200022457634e487b7160e01b600052602260045260246000fd5b50919050565b601f8211156200027857600081815260208120601f850160051c81016020861015620002535750805b601f850160051c820191505b8181101562000274578281556001016200025f565b5050505b505050565b81516001600160401b03811115620002995762000299620001d8565b620002b181620002aa8454620001ee565b846200022a565b602080601f831160018114620002e95760008415620002d05750858301515b600019600386901b1c1916600185901b17855562000274565b600085815260208120601f198616915b828110156200031a57888601518255948401946001909101908401620002f9565b5085821015620003395787850151600019600388901b60f8161c191681555b5050505050600190811b01905550565b600060208083528351808285015260005b8181101562000378578581018301518582016040015282016200035a565b506000604082860101526040601f19601f8301168501019250505092915050565b80516020808301519190811015620002245760001960209190910360031b1b16919050565b60805160a05160c05160e051610100516101205161014051612bc8620004196000396000610f4901526000610f1f01526000611dc401526000611d9c01526000611cf701526000611d2101526000611d4b0152612bc86000f3fe608060405234801561001057600080fd5b50600436106101e55760003560e01c80636ce1c0451161010f578063aa111395116100a2578063d0e9397c11610071578063d0e9397c1461051f578063d28795d214610563578063e30a7f2414610576578063ffc3a83a1461058957600080fd5b8063aa111395146104c5578063b1891699146104d8578063b3dbf40b146104eb578063c4192b6e146104fe57600080fd5b80637c23d0fa116100de5780637c23d0fa1461047157806384b0196e146104845780639d3b33231461049f578063a700c202146104b257600080fd5b80636ce1c045146104155780636eb3e17a1461043857806370284d191461044b57806374a8f1031461045e57600080fd5b80634a7160a21161018757806365d57ef21161015657806365d57ef2146103b157806367c357bd146103c457806369532572146103ef5780636b952f711461040257600080fd5b80634a7160a214610358578063540d88281461036b5780635bb88db31461038b5780635e4c9b031461039e57600080fd5b806320134d19116101c357806320134d191461023b57806325d9315f146102b85780632d0335ab146102e657806335f935b61461032a57600080fd5b80630388c866146101ea57806308ea1884146102135780630bc7eca514610228575b600080fd5b6101fd6101f8366004612155565b61059c565b60405161020a91906121d6565b60405180910390f35b61022661022136600461221c565b610748565b005b61022661023636600461224f565b6107cd565b6102a861024936600461221c565b6040805173ffffffffffffffffffffffffffffffffffffffff9490941660208086019190915284820193909352606080850192909252805180850390920182526080909301835280519082012060009081526007909152205460ff1690565b604051901515815260200161020a565b6102a86102c636600461224f565b600560209081526000928352604080842090915290825290205460ff1681565b61031c6102f4366004612279565b73ffffffffffffffffffffffffffffffffffffffff1660009081526002602052604090205490565b60405190815260200161020a565b6102a861033836600461229b565b600360209081526000928352604080842090915290825290205460ff1681565b6102266103663660046122ce565b610850565b61031c610379366004612279565b60066020526000908152604090205481565b6101fd6103993660046122e7565b610864565b6102a86103ac36600461224f565b610a44565b6102266103bf3660046122e7565b610a73565b61031c6103d236600461224f565b600860209081526000928352604080842090915290825290205481565b6102266103fd3660046123f2565b610bca565b610226610410366004612155565b610c78565b6102a86104233660046122ce565b60076020526000908152604090205460ff1681565b6102266104463660046122ce565b610d89565b610226610459366004612279565b610d9a565b61022661046c366004612279565b610e03565b61022661047f3660046123f2565b610e69565b61048c610f11565b60405161020a9796959493929190612502565b6102266104ad3660046125c1565b610fb5565b6102a86104c0366004612279565b6110c0565b6102266104d33660046125e9565b611101565b6102a86104e636600461260b565b611113565b6102266104f936600461267c565b611290565b61051161050c36600461260b565b611340565b60405161020a9291906126ca565b6102a861052d36600461221c565b73ffffffffffffffffffffffffffffffffffffffff92909216600090815260086020908152604080832093835292905220541490565b6102266105713660046126ed565b611500565b61022661058436600461272c565b61153c565b61022661059736600461224f565b6115c5565b606083828115806105ad5750808214155b156105e4576040517f33b094a100000000000000000000000000000000000000000000000000000000815260040160405180910390fd5b8167ffffffffffffffff8111156105fd576105fd612381565b604051908082528060200260200182016040528015610626578160200160208202803683370190505b50925060005b8281101561073c57306320134d198a8a8a8581811061064d5761064d61278c565b905060200201358989868181106106665761066661278c565b6040517fffffffff0000000000000000000000000000000000000000000000000000000060e088901b16815273ffffffffffffffffffffffffffffffffffffffff9095166004860152602485019390935250602090910201356044820152606401602060405180830381865afa1580156106e4573d6000803e3d6000fd5b505050506040513d601f19601f8201168201806040525081019061070891906127bb565b84828151811061071a5761071a61278c565b91151560209283029190910190910152806107348161280c565b91505061062c565b50505095945050505050565b6107878373ffffffffffffffffffffffffffffffffffffffff16600090815260036020908152604080832033845290915290205460ff16151560011490565b6107bd576040517f82b4290000000000000000000000000000000000000000000000000000000000815260040160405180910390fd5b6107c8838383611678565b505050565b61080c8273ffffffffffffffffffffffffffffffffffffffff16600090815260036020908152604080832033845290915290205460ff16151560011490565b610842576040517f82b4290000000000000000000000000000000000000000000000000000000000815260040160405180910390fd5b61084c8282611770565b5050565b61086161085b611829565b8261188e565b50565b60608584838215806108765750818314155b806108815750808314155b156108b8576040517f33b094a100000000000000000000000000000000000000000000000000000000815260040160405180910390fd5b8267ffffffffffffffff8111156108d1576108d1612381565b6040519080825280602002602001820160405280156108fa578160200160208202803683370190505b50935060005b83811015610a3657306320134d198c8c848181106109205761092061278c565b90506020020160208101906109359190612279565b8b8b858181106109475761094761278c565b905060200201358a8a868181106109605761096061278c565b6040517fffffffff0000000000000000000000000000000000000000000000000000000060e088901b16815273ffffffffffffffffffffffffffffffffffffffff9095166004860152602485019390935250602090910201356044820152606401602060405180830381865afa1580156109de573d6000803e3d6000fd5b505050506040513d601f19601f82011682018060405250810190610a0291906127bb565b858281518110610a1457610a1461278c565b9115156020928302919091019091015280610a2e8161280c565b915050610900565b505050509695505050505050565b73ffffffffffffffffffffffffffffffffffffffff821660009081526006602052604090205481145b92915050565b848382821580610a835750818314155b80610a8e5750808314155b15610ac5576040517f33b094a100000000000000000000000000000000000000000000000000000000815260040160405180910390fd5b60005b81811015610bbe5760008a8a83818110610ae457610ae461278c565b9050602002016020810190610af99190612279565b9050610b3a8173ffffffffffffffffffffffffffffffffffffffff16600090815260036020908152604080832033845290915290205460ff16151560011490565b610b70576040517f82b4290000000000000000000000000000000000000000000000000000000000815260040160405180910390fd5b610bab818a8a85818110610b8657610b8661278c565b90506020020135898986818110610b9f57610b9f61278c565b90506020020135611678565b5080610bb68161280c565b915050610ac8565b50505050505050505050565b610bf77f206035069134b0f55396cc0938733ce9b4b01891f54bd1c589b820cdec72238b8486858561195b565b835160208086015173ffffffffffffffffffffffffffffffffffffffff868116600081815260038552604080822093871680835293865290819020805460ff19169055518381529293919290917f0b2a42e835a700e460e8ae1fb49c166e067ce334227d370839aff500f656bbf791015b60405180910390a3505050505050565b8281811580610c875750808214155b15610cbe576040517f33b094a100000000000000000000000000000000000000000000000000000000815260040160405180910390fd5b60005b81811015610d7f57610d088873ffffffffffffffffffffffffffffffffffffffff16600090815260036020908152604080832033845290915290205460ff16151560011490565b610d3e576040517f82b4290000000000000000000000000000000000000000000000000000000000815260040160405180910390fd5b610d6d88888884818110610d5457610d5461278c565b90506020020135878785818110610b9f57610b9f61278c565b80610d778161280c565b915050610cc1565b5050505050505050565b610861610d94611829565b82611770565b33600081815260036020908152604080832073ffffffffffffffffffffffffffffffffffffffff86168085529252808320805460ff1916600117905551909183917fe1807bac79e3e9ddd49b7172ea0e99809e4d1fc4fef4dd980e691da4384fbd0f9190a35050565b33600081815260036020908152604080832073ffffffffffffffffffffffffffffffffffffffff86168085529252808320805460ff1916905551909183917fd7426110292f20fe59e73ccf52124e0f5440a756507c91c7b0a6c50e1eb1a23a9190a35050565b610e967f47bb01fde5a3c8679089a9ec23e59cda52d392729ed4133920daa9f5c0940c4f8486858561195b565b835160208086015173ffffffffffffffffffffffffffffffffffffffff808716600081815260038552604080822093871680835293909552849020805460ff191660011790559251919290917fa0f3c431d64725cc9a3649b304e75c551b074d9ed5715401e66373cc93d3107290610c689085815260200190565b600060608082808083610f447f000000000000000000000000000000000000000000000000000000000000000083611ad7565b610f6f7f00000000000000000000000000000000000000000000000000000000000000006001611ad7565b604080516000808252602082019092527f0f000000000000000000000000000000000000000000000000000000000000009b939a50919850469750309650945092509050565b3360008181526002602052604090205465ffffffffffff83168110611006576040517f756688fe00000000000000000000000000000000000000000000000000000000815260040160405180910390fd5b65ffffffffffff831681900361ffff81111561104e576040517f24d35a2600000000000000000000000000000000000000000000000000000000815260040160405180910390fd5b5073ffffffffffffffffffffffffffffffffffffffff821660008181526002602090815260409182902065ffffffffffff87169081905582519081529081018490527f8bde7bf9be24658f5c1d48843fb04034cae6c6ceacf23b0cf97b724e4cdc599f910160405180910390a2505050565b6000610a6d8273ffffffffffffffffffffffffffffffffffffffff16600090815260036020908152604080832033845290915290205460ff16151560011490565b61084c61110c611829565b8383611678565b6000806111c67f2c521d146a6f6c09462cb178367b028f1718b1f01d7995bb405dae702c2bee7d6111476020880188612279565b602088013561115960408a018a612844565b6040516111679291906128a9565b6040519081900381206111ab9493929160200193845273ffffffffffffffffffffffffffffffffffffffff9290921660208401526040830152606082015260800190565b60405160208183030381529060405280519060200120611b7b565b9050602085018035906002906000906111df9089612279565b73ffffffffffffffffffffffffffffffffffffffff1673ffffffffffffffffffffffffffffffffffffffff1681526020019081526020016000205414801561128757506112878185858080601f01602080910402602001604051908101604052809392919081815260200183838082843760009201919091525061126a925050506020890189612279565b73ffffffffffffffffffffffffffffffffffffffff169190611bc3565b95945050505050565b6112cf8473ffffffffffffffffffffffffffffffffffffffff16600090815260036020908152604080832033845290915290205460ff16151560011490565b611305576040517f82b4290000000000000000000000000000000000000000000000000000000000815260040160405180910390fd5b60005b81811015611339576113278585858585818110610b9f57610b9f61278c565b806113318161280c565b915050611308565b5050505050565b6000606061134f858585611113565b611385576040517f8baa579f00000000000000000000000000000000000000000000000000000000815260040160405180910390fd5b611394602086013560016128b9565b600260006113a56020890189612279565b73ffffffffffffffffffffffffffffffffffffffff168152602080820192909252604001600020919091556113dc90860186612279565b600480547fffffffffffffffffffffffff00000000000000000000000000000000000000001673ffffffffffffffffffffffffffffffffffffffff92909216919091179055600080306114326040890189612844565b61143f60208b018b612279565b604051602001611451939291906128cc565b604080517fffffffffffffffffffffffffffffffffffffffffffffffffffffffffffffffe08184030181529082905261148991612905565b600060405180830381855af49150503d80600081146114c4576040519150601f19603f3d011682016040523d82523d6000602084013e6114c9565b606091505b50600480547fffffffffffffffffffffffff0000000000000000000000000000000000000000169055909890975095505050505050565b8060005b818110156113395761152a611517611829565b86868685818110610b9f57610b9f61278c565b806115348161280c565b915050611504565b828181158061154b5750808214155b15611582576040517f33b094a100000000000000000000000000000000000000000000000000000000815260040160405180910390fd5b60005b828110156115bc576115aa611598611829565b888884818110610d5457610d5461278c565b806115b48161280c565b915050611585565b50505050505050565b6116048273ffffffffffffffffffffffffffffffffffffffff16600090815260036020908152604080832033845290915290205460ff16151560011490565b61163a576040517f82b4290000000000000000000000000000000000000000000000000000000000815260040160405180910390fd5b61084c828261188e565b60006020835110156116605761165983611c3e565b9050610a6d565b8161166b84826129c2565b5060ff9050610a6d565b90565b73ffffffffffffffffffffffffffffffffffffffff8316600090815260056020908152604080832085845290915290205460ff166116e2576040517fe2b1171b00000000000000000000000000000000000000000000000000000000815260040160405180910390fd5b80828473ffffffffffffffffffffffffffffffffffffffff167f38caddea36d4bb0fc2e9597e46fd18beb7d9b9508b4a997e438bdb877a17efa44260405161172c91815260200190565b60405180910390a473ffffffffffffffffffffffffffffffffffffffff8316600090815260086020908152604080832085845290915290208054820190556107c883825b6040805173ffffffffffffffffffffffffffffffffffffffff84166020808301919091528183018490524260608084018290528451808503909101815260809093019093528151910120828473ffffffffffffffffffffffffffffffffffffffff167f7103c0fab1d2795199d448c2dd3217322f35d816243c3804867062c08250f3f08460405161180391815260200190565b60405180910390a36000908152600760205260409020805460ff19166001179055505050565b60045460009073ffffffffffffffffffffffffffffffffffffffff1615801590611854575060143610155b1561188457507fffffffffffffffffffffffffffffffffffffffffffffffffffffffffffffffec36013560601c90565b503390565b905090565b73ffffffffffffffffffffffffffffffffffffffff8216600090815260056020908152604080832084845290915290205460ff16156118cb575050565b604051819073ffffffffffffffffffffffffffffffffffffffff8416907f63fe44955cb468eca854578f614830dfddfb533a8adaf26af8c6624fd702d80690600090a373ffffffffffffffffffffffffffffffffffffffff90911660008181526005602090815260408083208584528252808320805460ff19166001179055928252600690522080549091019055565b60006119a486856000015186602001516040516020016111ab9392919092835273ffffffffffffffffffffffffffffffffffffffff919091166020830152604082015260600190565b90506119ff8184848080601f0160208091040260200160405190810160405280939291908181526020018383808284376000920191909152505073ffffffffffffffffffffffffffffffffffffffff8a169392915050611bc3565b611a35576040517f8baa579f00000000000000000000000000000000000000000000000000000000815260040160405180910390fd5b60208085015173ffffffffffffffffffffffffffffffffffffffff8716600090815260029092526040909120548114611a9a576040517f756688fe00000000000000000000000000000000000000000000000000000000815260040160405180910390fd5b611aa58160016128b9565b73ffffffffffffffffffffffffffffffffffffffff909616600090815260026020526040902095909555505050505050565b606060ff8314611aea5761165983611c9e565b818054611af690612921565b80601f0160208091040260200160405190810160405280929190818152602001828054611b2290612921565b8015611b6f5780601f10611b4457610100808354040283529160200191611b6f565b820191906000526020600020905b815481529060010190602001808311611b5257829003601f168201915b50505050509050610a6d565b6000610a6d611b88611cdd565b836040517f19010000000000000000000000000000000000000000000000000000000000008152600281019290925260228201526042902090565b6000806000611bd28585611e15565b90925090506000816004811115611beb57611beb612adc565b148015611c2357508573ffffffffffffffffffffffffffffffffffffffff168273ffffffffffffffffffffffffffffffffffffffff16145b80611c345750611c34868686611e5a565b9695505050505050565b600080829050601f81511115611c8b57826040517f305a27a9000000000000000000000000000000000000000000000000000000008152600401611c829190612b0b565b60405180910390fd5b8051611c9682612b1e565b179392505050565b60606000611cab83611fb7565b604080516020808252818301909252919250600091906020820181803683375050509182525060208101929092525090565b60003073ffffffffffffffffffffffffffffffffffffffff7f000000000000000000000000000000000000000000000000000000000000000016148015611d4357507f000000000000000000000000000000000000000000000000000000000000000046145b15611d6d57507f000000000000000000000000000000000000000000000000000000000000000090565b611889604080517f8b73c3c69bb8fe3d512ecc4cf759cc79239f7b179b0ffacaa9a75d522b39400f60208201527f0000000000000000000000000000000000000000000000000000000000000000918101919091527f000000000000000000000000000000000000000000000000000000000000000060608201524660808201523060a082015260009060c00160405160208183030381529060405280519060200120905090565b6000808251604103611e4b5760208301516040840151606085015160001a611e3f87828585611ff8565b94509450505050611e53565b506000905060025b9250929050565b60008060008573ffffffffffffffffffffffffffffffffffffffff16631626ba7e60e01b8686604051602401611e91929190612b60565b604080517fffffffffffffffffffffffffffffffffffffffffffffffffffffffffffffffe08184030181529181526020820180517bffffffffffffffffffffffffffffffffffffffffffffffffffffffff167fffffffff00000000000000000000000000000000000000000000000000000000909416939093179092529051611f1a9190612905565b600060405180830381855afa9150503d8060008114611f55576040519150601f19603f3d011682016040523d82523d6000602084013e611f5a565b606091505b5091509150818015611f6e57506020815110155b8015611c34575080517f1626ba7e0000000000000000000000000000000000000000000000000000000090611fac9083016020908101908401612b79565b149695505050505050565b600060ff8216601f811115610a6d576040517fb3512b0c00000000000000000000000000000000000000000000000000000000815260040160405180910390fd5b6000807f7fffffffffffffffffffffffffffffff5d576e7357a4501ddfe92f46681b20a083111561202f57506000905060036120de565b6040805160008082526020820180845289905260ff881692820192909252606081018690526080810185905260019060a0016020604051602081039080840390855afa158015612083573d6000803e3d6000fd5b50506040517fffffffffffffffffffffffffffffffffffffffffffffffffffffffffffffffe0015191505073ffffffffffffffffffffffffffffffffffffffff81166120d7576000600192509250506120de565b9150600090505b94509492505050565b803573ffffffffffffffffffffffffffffffffffffffff8116811461210b57600080fd5b919050565b60008083601f84011261212257600080fd5b50813567ffffffffffffffff81111561213a57600080fd5b6020830191508360208260051b8501011115611e5357600080fd5b60008060008060006060868803121561216d57600080fd5b612176866120e7565b9450602086013567ffffffffffffffff8082111561219357600080fd5b61219f89838a01612110565b909650945060408801359150808211156121b857600080fd5b506121c588828901612110565b969995985093965092949392505050565b6020808252825182820181905260009190848201906040850190845b818110156122105783511515835292840192918401916001016121f2565b50909695505050505050565b60008060006060848603121561223157600080fd5b61223a846120e7565b95602085013595506040909401359392505050565b6000806040838503121561226257600080fd5b61226b836120e7565b946020939093013593505050565b60006020828403121561228b57600080fd5b612294826120e7565b9392505050565b600080604083850312156122ae57600080fd5b6122b7836120e7565b91506122c5602084016120e7565b90509250929050565b6000602082840312156122e057600080fd5b5035919050565b6000806000806000806060878903121561230057600080fd5b863567ffffffffffffffff8082111561231857600080fd5b6123248a838b01612110565b9098509650602089013591508082111561233d57600080fd5b6123498a838b01612110565b9096509450604089013591508082111561236257600080fd5b5061236f89828a01612110565b979a9699509497509295939492505050565b7f4e487b7100000000000000000000000000000000000000000000000000000000600052604160045260246000fd5b60008083601f8401126123c257600080fd5b50813567ffffffffffffffff8111156123da57600080fd5b602083019150836020828501011115611e5357600080fd5b600080600080848603608081121561240957600080fd5b604081121561241757600080fd5b506040516040810167ffffffffffffffff828210818311171561243c5761243c612381565b81604052612449886120e7565b835260208801356020840152829650612464604089016120e7565b9550606088013592508083111561247a57600080fd5b5050612488878288016123b0565b95989497509550505050565b60005b838110156124af578181015183820152602001612497565b50506000910152565b600081518084526124d0816020860160208601612494565b601f017fffffffffffffffffffffffffffffffffffffffffffffffffffffffffffffffe0169290920160200192915050565b7fff00000000000000000000000000000000000000000000000000000000000000881681526000602060e08184015261253e60e084018a6124b8565b8381036040850152612550818a6124b8565b6060850189905273ffffffffffffffffffffffffffffffffffffffff8816608086015260a0850187905284810360c0860152855180825283870192509083019060005b818110156125af57835183529284019291840191600101612593565b50909c9b505050505050505050505050565b6000602082840312156125d357600080fd5b813565ffffffffffff8116811461229457600080fd5b600080604083850312156125fc57600080fd5b50508035926020909101359150565b60008060006040848603121561262057600080fd5b833567ffffffffffffffff8082111561263857600080fd5b908501906060828803121561264c57600080fd5b9093506020850135908082111561266257600080fd5b5061266f868287016123b0565b9497909650939450505050565b6000806000806060858703121561269257600080fd5b61269b856120e7565b935060208501359250604085013567ffffffffffffffff8111156126be57600080fd5b61248887828801612110565b82151581526040602082015260006126e560408301846124b8565b949350505050565b60008060006040848603121561270257600080fd5b83359250602084013567ffffffffffffffff81111561272057600080fd5b61266f86828701612110565b6000806000806040858703121561274257600080fd5b843567ffffffffffffffff8082111561275a57600080fd5b61276688838901612110565b9096509450602087013591508082111561277f57600080fd5b5061248887828801612110565b7f4e487b7100000000000000000000000000000000000000000000000000000000600052603260045260246000fd5b6000602082840312156127cd57600080fd5b8151801515811461229457600080fd5b7f4e487b7100000000000000000000000000000000000000000000000000000000600052601160045260246000fd5b60007fffffffffffffffffffffffffffffffffffffffffffffffffffffffffffffffff820361283d5761283d6127dd565b5060010190565b60008083357fffffffffffffffffffffffffffffffffffffffffffffffffffffffffffffffe184360301811261287957600080fd5b83018035915067ffffffffffffffff82111561289457600080fd5b602001915036819003821315611e5357600080fd5b8183823760009101908152919050565b80820180821115610a6d57610a6d6127dd565b8284823760609190911b7fffffffffffffffffffffffffffffffffffffffff000000000000000000000000169101908152601401919050565b60008251612917818460208701612494565b9190910192915050565b600181811c9082168061293557607f821691505b60208210810361296e577f4e487b7100000000000000000000000000000000000000000000000000000000600052602260045260246000fd5b50919050565b601f8211156107c857600081815260208120601f850160051c8101602086101561299b5750805b601f850160051c820191505b818110156129ba578281556001016129a7565b505050505050565b815167ffffffffffffffff8111156129dc576129dc612381565b6129f0816129ea8454612921565b84612974565b602080601f831160018114612a435760008415612a0d5750858301515b7fffffffffffffffffffffffffffffffffffffffffffffffffffffffffffffffff600386901b1c1916600185901b1785556129ba565b6000858152602081207fffffffffffffffffffffffffffffffffffffffffffffffffffffffffffffffe08616915b82811015612a9057888601518255948401946001909101908401612a71565b5085821015612acc57878501517fffffffffffffffffffffffffffffffffffffffffffffffffffffffffffffffff600388901b60f8161c191681555b5050505050600190811b01905550565b7f4e487b7100000000000000000000000000000000000000000000000000000000600052602160045260246000fd5b60208152600061229460208301846124b8565b8051602080830151919081101561296e577fffffffffffffffffffffffffffffffffffffffffffffffffffffffffffffffff60209190910360031b1b16919050565b8281526040602082015260006126e560408301846124b8565b600060208284031215612b8b57600080fd5b505191905056fea2646970667358221220adb554eecf57848a2c454e2f15d1e3f6f52107a98a792ad66f5ad310bd17efac64736f6c63430008110033",
  "linkReferences": {},
  "deployedLinkReferences": {}
}