{
  "_format": "hh-sol-artifact-1",
  "contractName": "CommitmentServiceTest",
  "sourceName": "contracts/test/CommitmentServiceTest.sol",
  "abi": [
    {
      "inputs": [],
      "name": "ExcessiveInvalidation",
      "type": "error"
    },
    {
      "inputs": [],
      "name": "InvalidBatch",
      "type": "error"
    },
    {
      "inputs": [],
      "name": "InvalidNonce",
      "type": "error"
    },
    {
      "inputs": [],
      "name": "InvalidSet",
      "type": "error"
    },
    {
      "inputs": [],
      "name": "InvalidShortString",
      "type": "error"
    },
    {
      "inputs": [],
      "name": "InvalidSignature",
      "type": "error"
    },
    {
      "inputs": [
        {
          "internalType": "string",
          "name": "str",
          "type": "string"
        }
      ],
      "name": "StringTooLong",
      "type": "error"
    },
    {
      "inputs": [],
      "name": "Unauthorized",
      "type": "error"
    },
    {
      "anonymous": false,
      "inputs": [
        {
          "indexed": true,
          "internalType": "address",
          "name": "user",
          "type": "address"
        },
        {
          "indexed": true,
          "internalType": "bytes32",
          "name": "objectCid",
          "type": "bytes32"
        },
        {
          "indexed": false,
          "internalType": "uint256",
          "name": "timestamp",
          "type": "uint256"
        }
      ],
      "name": "AddObject",
      "type": "event"
    },
    {
      "anonymous": false,
      "inputs": [
        {
          "indexed": true,
          "internalType": "address",
          "name": "user",
          "type": "address"
        },
        {
          "indexed": true,
          "internalType": "bytes32",
          "name": "setCid",
          "type": "bytes32"
        }
      ],
      "name": "AddSet",
      "type": "event"
    },
    {
      "anonymous": false,
      "inputs": [
        {
          "indexed": true,
          "internalType": "address",
          "name": "user",
          "type": "address"
        },
        {
          "indexed": true,
          "internalType": "bytes32",
          "name": "setCid",
          "type": "bytes32"
        },
        {
          "indexed": true,
          "internalType": "bytes32",
          "name": "objectCid",
          "type": "bytes32"
        },
        {
          "indexed": false,
          "internalType": "uint256",
          "name": "timestamp",
          "type": "uint256"
        }
      ],
      "name": "AddSetObject",
      "type": "event"
    },
    {
      "anonymous": false,
      "inputs": [],
      "name": "EIP712DomainChanged",
      "type": "event"
    },
    {
      "anonymous": false,
      "inputs": [
        {
          "indexed": true,
          "internalType": "address",
          "name": "user",
          "type": "address"
        },
        {
          "indexed": true,
          "internalType": "address",
          "name": "delegate",
          "type": "address"
        }
      ],
      "name": "Grant",
      "type": "event"
    },
    {
      "anonymous": false,
      "inputs": [
        {
          "indexed": true,
          "internalType": "address",
          "name": "user",
          "type": "address"
        },
        {
          "indexed": true,
          "internalType": "address",
          "name": "delegate",
          "type": "address"
        },
        {
          "indexed": false,
          "internalType": "uint256",
          "name": "nonce",
          "type": "uint256"
        }
      ],
      "name": "GrantBySignature",
      "type": "event"
    },
    {
      "anonymous": false,
      "inputs": [
        {
          "indexed": true,
          "internalType": "address",
          "name": "user",
          "type": "address"
        },
        {
          "indexed": false,
          "internalType": "uint256",
          "name": "newNonce",
          "type": "uint256"
        },
        {
          "indexed": false,
          "internalType": "uint256",
          "name": "oldNonce",
          "type": "uint256"
        }
      ],
      "name": "NonceInvalidation",
      "type": "event"
    },
    {
      "anonymous": false,
      "inputs": [
        {
          "indexed": true,
          "internalType": "address",
          "name": "user",
          "type": "address"
        },
        {
          "indexed": true,
          "internalType": "address",
          "name": "delegate",
          "type": "address"
        }
      ],
      "name": "Revoke",
      "type": "event"
    },
    {
      "anonymous": false,
      "inputs": [
        {
          "indexed": true,
          "internalType": "address",
          "name": "user",
          "type": "address"
        },
        {
          "indexed": true,
          "internalType": "address",
          "name": "delegate",
          "type": "address"
        },
        {
          "indexed": false,
          "internalType": "uint256",
          "name": "nonce",
          "type": "uint256"
        }
      ],
      "name": "RevokeBySignature",
      "type": "event"
    },
    {
      "inputs": [
        {
          "internalType": "bytes32",
          "name": "objectCid",
          "type": "bytes32"
        }
      ],
      "name": "addObject",
      "outputs": [],
      "stateMutability": "nonpayable",
      "type": "function"
    },
    {
      "inputs": [
        {
          "internalType": "bytes32",
          "name": "objectCid",
          "type": "bytes32"
        },
        {
          "internalType": "uint256",
          "name": "timestamp",
          "type": "uint256"
        }
      ],
      "name": "addObjectWithTimestamp",
      "outputs": [],
      "stateMutability": "nonpayable",
      "type": "function"
    },
    {
      "inputs": [
        {
          "internalType": "bytes32",
          "name": "setCid",
          "type": "bytes32"
        }
      ],
      "name": "addSet",
      "outputs": [],
      "stateMutability": "nonpayable",
      "type": "function"
    },
    {
      "inputs": [
        {
          "internalType": "bytes32",
          "name": "setCid",
          "type": "bytes32"
        },
        {
          "internalType": "bytes32",
          "name": "objectCid",
          "type": "bytes32"
        }
      ],
      "name": "addSetObject",
      "outputs": [],
      "stateMutability": "nonpayable",
      "type": "function"
    },
    {
      "inputs": [
        {
          "internalType": "bytes32",
          "name": "setCid",
          "type": "bytes32"
        },
        {
          "internalType": "bytes32",
          "name": "objectCid",
          "type": "bytes32"
        },
        {
          "internalType": "uint256",
          "name": "timestamp",
          "type": "uint256"
        }
      ],
      "name": "addSetObjectWithTimestamp",
      "outputs": [],
      "stateMutability": "nonpayable",
      "type": "function"
    },
    {
      "inputs": [
        {
          "internalType": "bytes32",
          "name": "setCid",
          "type": "bytes32"
        },
        {
          "internalType": "bytes32[]",
          "name": "objectCids",
          "type": "bytes32[]"
        }
      ],
      "name": "addSetObjectsBatch",
      "outputs": [],
      "stateMutability": "nonpayable",
      "type": "function"
    },
    {
      "inputs": [
        {
          "internalType": "bytes32",
          "name": "setCid",
          "type": "bytes32"
        },
        {
          "internalType": "bytes32[]",
          "name": "objectCids",
          "type": "bytes32[]"
        },
        {
          "internalType": "uint256[]",
          "name": "timestamps",
          "type": "uint256[]"
        }
      ],
      "name": "addSetObjectsWithTimestampsBatch",
      "outputs": [],
      "stateMutability": "nonpayable",
      "type": "function"
    },
    {
      "inputs": [
        {
          "internalType": "bytes32[]",
          "name": "setCids",
          "type": "bytes32[]"
        },
        {
          "internalType": "bytes32[]",
          "name": "objectCids",
          "type": "bytes32[]"
        }
      ],
      "name": "addSetsObjectsBatch",
      "outputs": [],
      "stateMutability": "nonpayable",
      "type": "function"
    },
    {
      "inputs": [
        {
          "internalType": "bytes32[]",
          "name": "setCids",
          "type": "bytes32[]"
        },
        {
          "internalType": "bytes32[]",
          "name": "objectCids",
          "type": "bytes32[]"
        },
        {
          "internalType": "uint256[]",
          "name": "timestamps",
          "type": "uint256[]"
        }
      ],
      "name": "addSetsObjectsWithTimestampsBatch",
      "outputs": [],
      "stateMutability": "nonpayable",
      "type": "function"
    },
    {
      "inputs": [
        {
          "internalType": "address",
          "name": "user",
          "type": "address"
        },
        {
          "internalType": "bytes32",
          "name": "objectCid",
          "type": "bytes32"
        }
      ],
      "name": "addUserObject",
      "outputs": [],
      "stateMutability": "nonpayable",
      "type": "function"
    },
    {
      "inputs": [
        {
          "internalType": "address",
          "name": "user",
          "type": "address"
        },
        {
          "internalType": "bytes32",
          "name": "objectCid",
          "type": "bytes32"
        },
        {
          "internalType": "uint256",
          "name": "timestamp",
          "type": "uint256"
        }
      ],
      "name": "addUserObjectWithTimestamp",
      "outputs": [],
      "stateMutability": "nonpayable",
      "type": "function"
    },
    {
      "inputs": [
        {
          "internalType": "address",
          "name": "user",
          "type": "address"
        },
        {
          "internalType": "bytes32",
          "name": "setCid",
          "type": "bytes32"
        }
      ],
      "name": "addUserSet",
      "outputs": [],
      "stateMutability": "nonpayable",
      "type": "function"
    },
    {
      "inputs": [
        {
          "internalType": "address",
          "name": "user",
          "type": "address"
        },
        {
          "internalType": "bytes32",
          "name": "setCid",
          "type": "bytes32"
        },
        {
          "internalType": "bytes32",
          "name": "objectCid",
          "type": "bytes32"
        }
      ],
      "name": "addUserSetObject",
      "outputs": [],
      "stateMutability": "nonpayable",
      "type": "function"
    },
    {
      "inputs": [
        {
          "internalType": "address",
          "name": "user",
          "type": "address"
        },
        {
          "internalType": "bytes32",
          "name": "setCid",
          "type": "bytes32"
        },
        {
          "internalType": "bytes32",
          "name": "objectCid",
          "type": "bytes32"
        },
        {
          "internalType": "uint256",
          "name": "timestamp",
          "type": "uint256"
        }
      ],
      "name": "addUserSetObjectWithTimestamp",
      "outputs": [],
      "stateMutability": "nonpayable",
      "type": "function"
    },
    {
      "inputs": [
        {
          "internalType": "address",
          "name": "user",
          "type": "address"
        },
        {
          "internalType": "bytes32",
          "name": "setCid",
          "type": "bytes32"
        },
        {
          "internalType": "bytes32[]",
          "name": "objectCids",
          "type": "bytes32[]"
        }
      ],
      "name": "addUserSetObjectsBatch",
      "outputs": [],
      "stateMutability": "nonpayable",
      "type": "function"
    },
    {
      "inputs": [
        {
          "internalType": "address",
          "name": "user",
          "type": "address"
        },
        {
          "internalType": "bytes32",
          "name": "setCid",
          "type": "bytes32"
        },
        {
          "internalType": "bytes32[]",
          "name": "objectCids",
          "type": "bytes32[]"
        },
        {
          "internalType": "uint256[]",
          "name": "timestamps",
          "type": "uint256[]"
        }
      ],
      "name": "addUserSetObjectsWithTimestampsBatch",
      "outputs": [],
      "stateMutability": "nonpayable",
      "type": "function"
    },
    {
      "inputs": [
        {
          "internalType": "address",
          "name": "user",
          "type": "address"
        },
        {
          "internalType": "bytes32[]",
          "name": "setCids",
          "type": "bytes32[]"
        },
        {
          "internalType": "bytes32[]",
          "name": "objectCids",
          "type": "bytes32[]"
        }
      ],
      "name": "addUserSetsObjectsBatch",
      "outputs": [],
      "stateMutability": "nonpayable",
      "type": "function"
    },
    {
      "inputs": [
        {
          "internalType": "address",
          "name": "user",
          "type": "address"
        },
        {
          "internalType": "bytes32[]",
          "name": "setCids",
          "type": "bytes32[]"
        },
        {
          "internalType": "bytes32[]",
          "name": "objectCids",
          "type": "bytes32[]"
        },
        {
          "internalType": "uint256[]",
          "name": "timestamps",
          "type": "uint256[]"
        }
      ],
      "name": "addUserSetsObjectsWithTimestampsBatch",
      "outputs": [],
      "stateMutability": "nonpayable",
      "type": "function"
    },
    {
      "inputs": [
        {
          "internalType": "address[]",
          "name": "users",
          "type": "address[]"
        },
        {
          "internalType": "bytes32[]",
          "name": "setCids",
          "type": "bytes32[]"
        },
        {
          "internalType": "bytes32[]",
          "name": "objectCids",
          "type": "bytes32[]"
        }
      ],
      "name": "addUsersSetsObjectsBatch",
      "outputs": [],
      "stateMutability": "nonpayable",
      "type": "function"
    },
    {
      "inputs": [
        {
          "internalType": "address[]",
          "name": "users",
          "type": "address[]"
        },
        {
          "internalType": "bytes32[]",
          "name": "setCids",
          "type": "bytes32[]"
        },
        {
          "internalType": "bytes32[]",
          "name": "objectCids",
          "type": "bytes32[]"
        },
        {
          "internalType": "uint256[]",
          "name": "timestamps",
          "type": "uint256[]"
        }
      ],
      "name": "addUsersSetsObjectsWithTimestampsBatch",
      "outputs": [],
      "stateMutability": "nonpayable",
      "type": "function"
    },
    {
      "inputs": [
        {
          "internalType": "address",
          "name": "user",
          "type": "address"
        }
      ],
      "name": "checkAuthority",
      "outputs": [
        {
          "internalType": "bool",
          "name": "",
          "type": "bool"
        }
      ],
      "stateMutability": "view",
      "type": "function"
    },
    {
      "inputs": [
        {
          "internalType": "bytes32",
          "name": "setCid",
          "type": "bytes32"
        }
      ],
      "name": "clearSet",
      "outputs": [],
      "stateMutability": "nonpayable",
      "type": "function"
    },
    {
      "inputs": [
        {
          "internalType": "bytes32",
          "name": "setCid",
          "type": "bytes32"
        }
      ],
      "name": "clearSetObjects",
      "outputs": [],
      "stateMutability": "nonpayable",
      "type": "function"
    },
    {
      "inputs": [],
      "name": "clearSets",
      "outputs": [],
      "stateMutability": "nonpayable",
      "type": "function"
    },
    {
      "inputs": [
        {
          "internalType": "address",
          "name": "user",
          "type": "address"
        },
        {
          "internalType": "bytes32",
          "name": "setCid",
          "type": "bytes32"
        }
      ],
      "name": "clearUserSetObjects",
      "outputs": [],
      "stateMutability": "nonpayable",
      "type": "function"
    },
    {
      "inputs": [
        {
          "internalType": "address",
          "name": "user",
          "type": "address"
        }
      ],
      "name": "clearUserSets",
      "outputs": [],
      "stateMutability": "nonpayable",
      "type": "function"
    },
    {
      "inputs": [
        {
          "internalType": "address",
          "name": "",
          "type": "address"
        },
        {
          "internalType": "address",
          "name": "",
          "type": "address"
        }
      ],
      "name": "delegatedAuthority",
      "outputs": [
        {
          "internalType": "bool",
          "name": "",
          "type": "bool"
        }
      ],
      "stateMutability": "view",
      "type": "function"
    },
    {
      "inputs": [],
      "name": "eip712Domain",
      "outputs": [
        {
          "internalType": "bytes1",
          "name": "fields",
          "type": "bytes1"
        },
        {
          "internalType": "string",
          "name": "name",
          "type": "string"
        },
        {
          "internalType": "string",
          "name": "version",
          "type": "string"
        },
        {
          "internalType": "uint256",
          "name": "chainId",
          "type": "uint256"
        },
        {
          "internalType": "address",
          "name": "verifyingContract",
          "type": "address"
        },
        {
          "internalType": "bytes32",
          "name": "salt",
          "type": "bytes32"
        },
        {
          "internalType": "uint256[]",
          "name": "extensions",
          "type": "uint256[]"
        }
      ],
      "stateMutability": "view",
      "type": "function"
    },
    {
      "inputs": [
        {
          "components": [
            {
              "internalType": "address",
              "name": "from",
              "type": "address"
            },
            {
              "internalType": "uint256",
              "name": "nonce",
              "type": "uint256"
            },
            {
              "internalType": "bytes",
              "name": "data",
              "type": "bytes"
            }
          ],
          "internalType": "struct IForwarder.ForwardRequest",
          "name": "req",
          "type": "tuple"
        },
        {
          "internalType": "bytes",
          "name": "signature",
          "type": "bytes"
        }
      ],
      "name": "execute",
      "outputs": [
        {
          "internalType": "bool",
          "name": "",
          "type": "bool"
        },
        {
          "internalType": "bytes",
          "name": "",
          "type": "bytes"
        }
      ],
      "stateMutability": "nonpayable",
      "type": "function"
    },
    {
      "inputs": [
        {
          "internalType": "address",
          "name": "from",
          "type": "address"
        }
      ],
      "name": "getNonce",
      "outputs": [
        {
          "internalType": "uint256",
          "name": "",
          "type": "uint256"
        }
      ],
      "stateMutability": "view",
      "type": "function"
    },
    {
      "inputs": [
        {
          "internalType": "address",
          "name": "delegate",
          "type": "address"
        }
      ],
      "name": "grant",
      "outputs": [],
      "stateMutability": "nonpayable",
      "type": "function"
    },
    {
      "inputs": [
        {
          "components": [
            {
              "internalType": "address",
              "name": "delegate",
              "type": "address"
            },
            {
              "internalType": "uint256",
              "name": "nonce",
              "type": "uint256"
            }
          ],
          "internalType": "struct IDelegatedAuthority.DelegateData",
          "name": "delegateData",
          "type": "tuple"
        },
        {
          "internalType": "address",
          "name": "user",
          "type": "address"
        },
        {
          "internalType": "bytes",
          "name": "signature",
          "type": "bytes"
        }
      ],
      "name": "grantBySignature",
      "outputs": [],
      "stateMutability": "nonpayable",
      "type": "function"
    },
    {
      "inputs": [
        {
          "internalType": "uint48",
          "name": "newNonce",
          "type": "uint48"
        }
      ],
      "name": "invalidateNonces",
      "outputs": [],
      "stateMutability": "nonpayable",
      "type": "function"
    },
    {
      "inputs": [
        {
          "internalType": "bytes32",
          "name": "",
          "type": "bytes32"
        }
      ],
      "name": "objectCommitments",
      "outputs": [
        {
          "internalType": "bool",
          "name": "",
          "type": "bool"
        }
      ],
      "stateMutability": "view",
      "type": "function"
    },
    {
      "inputs": [
        {
          "internalType": "address",
          "name": "delegate",
          "type": "address"
        }
      ],
      "name": "revoke",
      "outputs": [],
      "stateMutability": "nonpayable",
      "type": "function"
    },
    {
      "inputs": [
        {
          "components": [
            {
              "internalType": "address",
              "name": "delegate",
              "type": "address"
            },
            {
              "internalType": "uint256",
              "name": "nonce",
              "type": "uint256"
            }
          ],
          "internalType": "struct IDelegatedAuthority.DelegateData",
          "name": "delegateData",
          "type": "tuple"
        },
        {
          "internalType": "address",
          "name": "user",
          "type": "address"
        },
        {
          "internalType": "bytes",
          "name": "signature",
          "type": "bytes"
        }
      ],
      "name": "revokeBySignature",
      "outputs": [],
      "stateMutability": "nonpayable",
      "type": "function"
    },
    {
      "inputs": [
        {
          "internalType": "address",
          "name": "",
          "type": "address"
        }
      ],
      "name": "userSetCidSums",
      "outputs": [
        {
          "internalType": "uint256",
          "name": "",
          "type": "uint256"
        }
      ],
      "stateMutability": "view",
      "type": "function"
    },
    {
      "inputs": [
        {
          "internalType": "address",
          "name": "",
          "type": "address"
        },
        {
          "internalType": "bytes32",
          "name": "",
          "type": "bytes32"
        }
      ],
      "name": "userSetCommitments",
      "outputs": [
        {
          "internalType": "bool",
          "name": "",
          "type": "bool"
        }
      ],
      "stateMutability": "view",
      "type": "function"
    },
    {
      "inputs": [
        {
          "internalType": "address",
          "name": "",
          "type": "address"
        },
        {
          "internalType": "bytes32",
          "name": "",
          "type": "bytes32"
        }
      ],
      "name": "userSetObjectCidSums",
      "outputs": [
        {
          "internalType": "uint256",
          "name": "",
          "type": "uint256"
        }
      ],
      "stateMutability": "view",
      "type": "function"
    },
    {
      "inputs": [
        {
          "internalType": "address",
          "name": "",
          "type": "address"
        },
        {
          "internalType": "uint256",
          "name": "",
          "type": "uint256"
        }
      ],
      "name": "userSets",
      "outputs": [
        {
          "internalType": "bytes32",
          "name": "",
          "type": "bytes32"
        }
      ],
      "stateMutability": "view",
      "type": "function"
    },
    {
      "inputs": [
        {
          "components": [
            {
              "internalType": "address",
              "name": "from",
              "type": "address"
            },
            {
              "internalType": "uint256",
              "name": "nonce",
              "type": "uint256"
            },
            {
              "internalType": "bytes",
              "name": "data",
              "type": "bytes"
            }
          ],
          "internalType": "struct IForwarder.ForwardRequest",
          "name": "req",
          "type": "tuple"
        },
        {
          "internalType": "bytes",
          "name": "signature",
          "type": "bytes"
        }
      ],
      "name": "verify",
      "outputs": [
        {
          "internalType": "bool",
          "name": "",
          "type": "bool"
        }
      ],
      "stateMutability": "view",
      "type": "function"
    },
    {
      "inputs": [
        {
          "internalType": "address",
          "name": "user",
          "type": "address"
        },
        {
          "internalType": "bytes32",
          "name": "objectCid",
          "type": "bytes32"
        },
        {
          "internalType": "uint256",
          "name": "timestamp",
          "type": "uint256"
        }
      ],
      "name": "verifyUserObject",
      "outputs": [
        {
          "internalType": "bool",
          "name": "",
          "type": "bool"
        }
      ],
      "stateMutability": "view",
      "type": "function"
    },
    {
      "inputs": [
        {
          "internalType": "address",
          "name": "user",
          "type": "address"
        },
        {
          "internalType": "bytes32[]",
          "name": "objectCids",
          "type": "bytes32[]"
        },
        {
          "internalType": "uint256[]",
          "name": "timestamps",
          "type": "uint256[]"
        }
      ],
      "name": "verifyUserObjectsBatch",
      "outputs": [
        {
          "internalType": "bool[]",
          "name": "ret",
          "type": "bool[]"
        }
      ],
      "stateMutability": "view",
      "type": "function"
    },
    {
      "inputs": [
        {
          "internalType": "address",
          "name": "user",
          "type": "address"
        },
        {
          "internalType": "bytes32",
          "name": "setCid",
          "type": "bytes32"
        },
        {
          "internalType": "uint256",
          "name": "userSetObjectsCidSum",
          "type": "uint256"
        }
      ],
      "name": "verifyUserSetObjectsCidSum",
      "outputs": [
        {
          "internalType": "bool",
          "name": "",
          "type": "bool"
        }
      ],
      "stateMutability": "view",
      "type": "function"
    },
    {
      "inputs": [
        {
          "internalType": "address",
          "name": "user",
          "type": "address"
        },
        {
          "internalType": "uint256",
          "name": "setCidSum",
          "type": "uint256"
        }
      ],
      "name": "verifyUserSets",
      "outputs": [
        {
          "internalType": "bool",
          "name": "",
          "type": "bool"
        }
      ],
      "stateMutability": "view",
      "type": "function"
    },
    {
      "inputs": [
        {
          "internalType": "address[]",
          "name": "users",
          "type": "address[]"
        },
        {
          "internalType": "bytes32[]",
          "name": "objectCids",
          "type": "bytes32[]"
        },
        {
          "internalType": "uint256[]",
          "name": "timestamps",
          "type": "uint256[]"
        }
      ],
      "name": "verifyUsersObjectsBatch",
      "outputs": [
        {
          "internalType": "bool[]",
          "name": "ret",
          "type": "bool[]"
        }
      ],
      "stateMutability": "view",
      "type": "function"
    }
  ],
  "bytecode": "0x6101606040523480156200001257600080fd5b5060405180604001604052806011815260200170436f6d6d69746d656e745365727669636560781b81525060405180604001604052806005815260200164302e302e3160d81b815250818181816200007a6000836200013960201b62001de51790919060201c565b610120526200009781600162000139602090811b62001de517901c565b61014052815160208084019190912060e052815190820120610100524660a0526200012560e05161010051604080517f8b73c3c69bb8fe3d512ecc4cf759cc79239f7b179b0ffacaa9a75d522b39400f60208201529081019290925260608201524660808201523060a082015260009060c00160405160208183030381529060405280519060200120905090565b60805250503060c05250620003be92505050565b60006020835110156200015957620001518362000189565b905062000183565b826200017083620001d560201b62001e161760201c565b906200017d90826200027d565b5060ff90505b92915050565b600080829050601f81511115620001c0578260405163305a27a960e01b8152600401620001b7919062000349565b60405180910390fd5b8051620001cd8262000399565b179392505050565b90565b634e487b7160e01b600052604160045260246000fd5b600181811c908216806200020357607f821691505b6020821081036200022457634e487b7160e01b600052602260045260246000fd5b50919050565b601f8211156200027857600081815260208120601f850160051c81016020861015620002535750805b601f850160051c820191505b8181101562000274578281556001016200025f565b5050505b505050565b81516001600160401b03811115620002995762000299620001d8565b620002b181620002aa8454620001ee565b846200022a565b602080601f831160018114620002e95760008415620002d05750858301515b600019600386901b1c1916600185901b17855562000274565b600085815260208120601f198616915b828110156200031a57888601518255948401946001909101908401620002f9565b5085821015620003395787850151600019600388901b60f8161c191681555b5050505050600190811b01905550565b600060208083528351808285015260005b8181101562000378578581018301518582016040015282016200035a565b506000604082860101526040601f19601f8301168501019250505092915050565b80516020808301519190811015620002245760001960209190910360031b1b16919050565b60805160a05160c05160e051610100516101205161014051613707620004196000396000611528015260006114fe0152600061268f01526000612667015260006125c2015260006125ec0152600061261601526137076000f3fe608060405234801561001057600080fd5b506004361061030a5760003560e01c80636eb3e17a1161019c578063ab5b74ee116100ee578063d0e9397c11610097578063d562b3a311610071578063d562b3a314610773578063e30a7f2414610786578063ffc3a83a1461079957600080fd5b8063d0e9397c14610716578063d116a34a1461074d578063d28795d21461076057600080fd5b8063b3dbf40b116100c8578063b3dbf40b146106cf578063c4192b6e146106e2578063c4adbc391461070357600080fd5b8063ab5b74ee14610696578063ac04a055146106a9578063b1891699146106bc57600080fd5b806384b0196e116101505780639fa820081161012a5780639fa820081461065d578063a700c20214610670578063aa1113951461068357600080fd5b806384b0196e14610627578063945570ba146106425780639d3b33231461064a57600080fd5b8063728c1b9d11610181578063728c1b9d146105ee57806374a8f103146106015780637c23d0fa1461061457600080fd5b80636eb3e17a146105c857806370284d19146105db57600080fd5b8063540d88281161026057806362f104771161020957806369532572116101e3578063695325721461057f5780636b952f71146105925780636ce1c045146105a557600080fd5b806362f104771461052e57806365d57ef21461054157806367c357bd1461055457600080fd5b80635ea54d991161023a5780635ea54d99146104f55780635eec538f1461050857806362a3ca6e1461051b57600080fd5b8063540d8828146104af5780635bb88db3146104cf5780635e4c9b03146104e257600080fd5b806325d9315f116102c2578063453eec5e1161029c578063453eec5e146104765780634a7160a2146104895780634f8963661461049c57600080fd5b806325d9315f146103e35780632d0335ab1461041157806335f935b61461044857600080fd5b80630bc7eca5116102f35780630bc7eca51461034d578063163251d81461036057806320134d191461037357600080fd5b80630388c8661461030f57806308ea188414610338575b600080fd5b61032261031d366004612a2b565b6107ac565b60405161032f9190612aac565b60405180910390f35b61034b610346366004612af2565b61094b565b005b61034b61035b366004612b25565b6109a9565b61034b61036e366004612af2565b610a05565b6103d3610381366004612af2565b604080516001600160a01b039490941660208086019190915284820193909352606080850192909252805180850390920182526080909301835280519082012060009081526007909152205460ff1690565b604051901515815260200161032f565b6103d36103f1366004612b25565b600560209081526000928352604080842090915290825290205460ff1681565b61043a61041f366004612b4f565b6001600160a01b031660009081526002602052604090205490565b60405190815260200161032f565b6103d3610456366004612b71565b600360209081526000928352604080842090915290825290205460ff1681565b61034b610484366004612ba4565b610a9d565b61034b610497366004612ba4565b610ad1565b61034b6104aa366004612bbd565b610ae5565b61043a6104bd366004612b4f565b60066020526000908152604090205481565b6103226104dd366004612c81565b610c3d565b6103d36104f0366004612b25565b610e10565b61034b610503366004612d1b565b610e32565b61034b610516366004612d52565b610ed6565b61034b610529366004612c81565b610fe8565b61034b61053c366004612dfd565b611080565b61034b61054f366004612c81565b611093565b61043a610562366004612b25565b600860209081526000928352604080842090915290825290205481565b61034b61058d366004612e9a565b6111b7565b61034b6105a0366004612a2b565b611258565b6103d36105b3366004612ba4565b60076020526000908152604090205460ff1681565b61034b6105d6366004612ba4565b611338565b61034b6105e9366004612b4f565b611349565b61034b6105fc366004612b4f565b6113a5565b61034b61060f366004612b4f565b6113fc565b61034b610622366004612e9a565b611455565b61062f6114f0565b60405161032f9796959493929190612faa565b61034b611594565b61034b61065836600461305c565b6115a9565b61043a61066b366004612b25565b6116a7565b6103d361067e366004612b4f565b6116d8565b61034b610691366004613084565b61170c565b61034b6106a4366004612ba4565b61171e565b61034b6106b73660046130a6565b611757565b6103d36106ca366004613111565b61182a565b61034b6106dd366004613182565b611973565b6106f56106f0366004613111565b6119fc565b60405161032f9291906131d0565b61034b610711366004613084565b611ba2565b6103d3610724366004612af2565b6001600160a01b0392909216600090815260086020908152604080832093835292905220541490565b61034b61075b3660046131f3565b611bf3565b61034b61076e36600461322c565b611c52565b61034b610781366004612b25565b611c8e565b61034b61079436600461326b565b611d04565b61034b6107a7366004612b25565b611d8d565b606083828115806107bd5750808214155b156107f4576040517f33b094a100000000000000000000000000000000000000000000000000000000815260040160405180910390fd5b8167ffffffffffffffff81111561080d5761080d612e29565b604051908082528060200260200182016040528015610836578160200160208202803683370190505b50925060005b8281101561093f57306320134d198a8a8a8581811061085d5761085d6132cb565b90506020020135898986818110610876576108766132cb565b6040517fffffffff0000000000000000000000000000000000000000000000000000000060e088901b1681526001600160a01b039095166004860152602485019390935250602090910201356044820152606401602060405180830381865afa1580156108e7573d6000803e3d6000fd5b505050506040513d601f19601f8201168201806040525081019061090b91906132fa565b84828151811061091d5761091d6132cb565b91151560209283029190910190910152806109378161334b565b91505061083c565b50505095945050505050565b61097d836001600160a01b0316600090815260036020908152604080832033845290915290205460ff16151560011490565b610999576040516282b42960e81b815260040160405180910390fd5b6109a4838383611e19565b505050565b6109db826001600160a01b0316600090815260036020908152604080832033845290915290205460ff16151560011490565b6109f7576040516282b42960e81b815260040160405180910390fd5b610a018282611eea565b5050565b610a37836001600160a01b0316600090815260036020908152604080832033845290915290205460ff16151560011490565b610a53576040516282b42960e81b815260040160405180910390fd5b6109a4838383604080516001600160a01b03851660208083019190915281830185905260608083018590528351808403909101815260809092019092528051910120600090611f2b565b6000610aa7611f8f565b6001600160a01b031660009081526008602090815260408083209483529390529182209190915550565b610ae2610adc611f8f565b82611fe7565b50565b86858483831580610af65750828414155b80610b015750818414155b80610b0c5750808414155b15610b43576040517f33b094a100000000000000000000000000000000000000000000000000000000815260040160405180910390fd5b60005b83811015610c2e5760008d8d83818110610b6257610b626132cb565b9050602002016020810190610b779190612b4f565b9050610bab816001600160a01b0316600090815260036020908152604080832033845290915290205460ff16151560011490565b610bc7576040516282b42960e81b815260040160405180910390fd5b610c1b818d8d85818110610bdd57610bdd6132cb565b905060200201358c8c86818110610bf657610bf66132cb565b905060200201358b8b87818110610c0f57610c0f6132cb565b9050602002013561201d565b5080610c268161334b565b915050610b46565b50505050505050505050505050565b6060858483821580610c4f5750818314155b80610c5a5750808314155b15610c91576040517f33b094a100000000000000000000000000000000000000000000000000000000815260040160405180910390fd5b8267ffffffffffffffff811115610caa57610caa612e29565b604051908082528060200260200182016040528015610cd3578160200160208202803683370190505b50935060005b83811015610e0257306320134d198c8c84818110610cf957610cf96132cb565b9050602002016020810190610d0e9190612b4f565b8b8b85818110610d2057610d206132cb565b905060200201358a8a86818110610d3957610d396132cb565b6040517fffffffff0000000000000000000000000000000000000000000000000000000060e088901b1681526001600160a01b039095166004860152602485019390935250602090910201356044820152606401602060405180830381865afa158015610daa573d6000803e3d6000fd5b505050506040513d601f19601f82011682018060405250810190610dce91906132fa565b858281518110610de057610de06132cb565b9115156020928302919091019091015280610dfa8161334b565b915050610cd9565b505050509695505050505050565b6001600160a01b03821660009081526006602052604090205481145b92915050565b8281811580610e415750808214155b15610e78576040517f33b094a100000000000000000000000000000000000000000000000000000000815260040160405180910390fd5b60005b82811015610ecc57610eba610e8e611f8f565b89898985818110610ea157610ea16132cb565b90506020020135888886818110610c0f57610c0f6132cb565b80610ec48161334b565b915050610e7b565b5050505050505050565b848382821580610ee65750818314155b80610ef15750808314155b15610f28576040517f33b094a100000000000000000000000000000000000000000000000000000000815260040160405180910390fd5b610f5a8a6001600160a01b0316600090815260036020908152604080832033845290915290205460ff16151560011490565b610f76576040516282b42960e81b815260040160405180910390fd5b60005b83811015610fdb57610fc98b8b8b84818110610f9757610f976132cb565b905060200201358a8a85818110610fb057610fb06132cb565b90506020020135898986818110610c0f57610c0f6132cb565b80610fd38161334b565b915050610f79565b5050505050505050505050565b848382821580610ff85750818314155b806110035750808314155b1561103a576040517f33b094a100000000000000000000000000000000000000000000000000000000815260040160405180910390fd5b60005b8381101561107457611062611050611f8f565b8b8b84818110610f9757610f976132cb565b8061106c8161334b565b91505061103d565b50505050505050505050565b6109a461108b611f8f565b84848461201d565b8483828215806110a35750818314155b806110ae5750808314155b156110e5576040517f33b094a100000000000000000000000000000000000000000000000000000000815260040160405180910390fd5b60005b818110156110745760008a8a83818110611104576111046132cb565b90506020020160208101906111199190612b4f565b905061114d816001600160a01b0316600090815260036020908152604080832033845290915290205460ff16151560011490565b611169576040516282b42960e81b815260040160405180910390fd5b6111a4818a8a8581811061117f5761117f6132cb565b90506020020135898986818110611198576111986132cb565b90506020020135611e19565b50806111af8161334b565b9150506110e8565b6111e47f206035069134b0f55396cc0938733ce9b4b01891f54bd1c589b820cdec72238b848685856120ca565b83516020808601516001600160a01b03868116600081815260038552604080822093871680835293865290819020805460ff19169055518381529293919290917f0b2a42e835a700e460e8ae1fb49c166e067ce334227d370839aff500f656bbf791015b60405180910390a3505050505050565b82818115806112675750808214155b1561129e576040517f33b094a100000000000000000000000000000000000000000000000000000000815260040160405180910390fd5b60005b81811015610ecc576112db886001600160a01b0316600090815260036020908152604080832033845290915290205460ff16151560011490565b6112f7576040516282b42960e81b815260040160405180910390fd5b6113268888888481811061130d5761130d6132cb565b90506020020135878785818110611198576111986132cb565b806113308161334b565b9150506112a1565b610ae2611343611f8f565b82611eea565b3360008181526003602090815260408083206001600160a01b0386168085529252808320805460ff1916600117905551909183917fe1807bac79e3e9ddd49b7172ea0e99809e4d1fc4fef4dd980e691da4384fbd0f9190a35050565b6113d7816001600160a01b0316600090815260036020908152604080832033845290915290205460ff16151560011490565b6113f3576040516282b42960e81b815260040160405180910390fd5b610ae281612212565b3360008181526003602090815260408083206001600160a01b0386168085529252808320805460ff1916905551909183917fd7426110292f20fe59e73ccf52124e0f5440a756507c91c7b0a6c50e1eb1a23a9190a35050565b6114827f47bb01fde5a3c8679089a9ec23e59cda52d392729ed4133920daa9f5c0940c4f848685856120ca565b83516020808601516001600160a01b03808716600081815260038552604080822093871680835293909552849020805460ff191660011790559251919290917fa0f3c431d64725cc9a3649b304e75c551b074d9ed5715401e66373cc93d31072906112489085815260200190565b6000606080828080836115237f000000000000000000000000000000000000000000000000000000000000000083612323565b61154e7f00000000000000000000000000000000000000000000000000000000000000006001612323565b604080516000808252602082019092527f0f000000000000000000000000000000000000000000000000000000000000009b939a50919850469750309650945092509050565b600061159e611f8f565b9050610ae281612212565b3360008181526002602052604090205465ffffffffffff831681106115fa576040517f756688fe00000000000000000000000000000000000000000000000000000000815260040160405180910390fd5b65ffffffffffff831681900361ffff811115611642576040517f24d35a2600000000000000000000000000000000000000000000000000000000815260040160405180910390fd5b506001600160a01b03821660008181526002602090815260409182902065ffffffffffff87169081905582519081529081018490527f8bde7bf9be24658f5c1d48843fb04034cae6c6ceacf23b0cf97b724e4cdc599f910160405180910390a2505050565b600960205281600052604060002081815481106116c357600080fd5b90600052602060002001600091509150505481565b6000610e2c826001600160a01b0316600090815260036020908152604080832033845290915290205460ff16151560011490565b610a01611717611f8f565b8383611e19565b6000611728611f8f565b6001600160a01b0316600090815260056020908152604080832094835293905291909120805460ff1916905550565b82818115806117665750808214155b1561179d576040517f33b094a100000000000000000000000000000000000000000000000000000000815260040160405180910390fd5b6117cf886001600160a01b0316600090815260036020908152604080832033845290915290205460ff16151560011490565b6117eb576040516282b42960e81b815260040160405180910390fd5b60005b8281101561181f5761180d8989898985818110610ea157610ea16132cb565b806118178161334b565b9150506117ee565b505050505050505050565b6000806118d07f2c521d146a6f6c09462cb178367b028f1718b1f01d7995bb405dae702c2bee7d61185e6020880188612b4f565b602088013561187060408a018a613383565b60405161187e9291906133e8565b6040519081900381206118b5949392916020019384526001600160a01b039290921660208401526040830152606082015260800190565b604051602081830303815290604052805190602001206123c7565b9050602085018035906002906000906118e99089612b4f565b6001600160a01b03166001600160a01b031681526020019081526020016000205414801561196a575061196a8185858080601f01602080910402602001604051908101604052809392919081815260200183838082843760009201919091525061195a925050506020890189612b4f565b6001600160a01b0316919061240f565b95945050505050565b6119a5846001600160a01b0316600090815260036020908152604080832033845290915290205460ff16151560011490565b6119c1576040516282b42960e81b815260040160405180910390fd5b60005b818110156119f5576119e38585858585818110611198576111986132cb565b806119ed8161334b565b9150506119c4565b5050505050565b60006060611a0b85858561182a565b611a41576040517f8baa579f00000000000000000000000000000000000000000000000000000000815260040160405180910390fd5b611a50602086013560016133f8565b60026000611a616020890189612b4f565b6001600160a01b0316815260208082019290925260400160002091909155611a8b90860186612b4f565b600480547fffffffffffffffffffffffff0000000000000000000000000000000000000000166001600160a01b039290921691909117905560008030611ad46040890189613383565b611ae160208b018b612b4f565b604051602001611af39392919061340b565b604080517fffffffffffffffffffffffffffffffffffffffffffffffffffffffffffffffe081840301815290829052611b2b91613444565b600060405180830381855af49150503d8060008114611b66576040519150601f19603f3d011682016040523d82523d6000602084013e611b6b565b606091505b50600480547fffffffffffffffffffffffff0000000000000000000000000000000000000000169055909890975095505050505050565b610a01611bad611f8f565b8383604080516001600160a01b03851660208083019190915281830185905260608083018590528351808403909101815260809092019092528051910120600090611f2b565b611c25846001600160a01b0316600090815260036020908152604080832033845290915290205460ff16151560011490565b611c41576040516282b42960e81b815260040160405180910390fd5b611c4c61108b611f8f565b50505050565b8060005b818110156119f557611c7c611c69611f8f565b86868685818110611198576111986132cb565b80611c868161334b565b915050611c56565b611cc0826001600160a01b0316600090815260036020908152604080832033845290915290205460ff16151560011490565b611cdc576040516282b42960e81b815260040160405180910390fd5b6001600160a01b03909116600090815260086020908152604080832093835292905290812055565b8281811580611d135750808214155b15611d4a576040517f33b094a100000000000000000000000000000000000000000000000000000000815260040160405180910390fd5b60005b82811015611d8457611d72611d60611f8f565b88888481811061130d5761130d6132cb565b80611d7c8161334b565b915050611d4d565b50505050505050565b611dbf826001600160a01b0316600090815260036020908152604080832033845290915290205460ff16151560011490565b611ddb576040516282b42960e81b815260040160405180910390fd5b610a018282611fe7565b6000602083511015611e0157611dfa83612470565b9050610e2c565b81611e0c8482613501565b5060ff9050610e2c565b90565b6001600160a01b038316600090815260056020908152604080832085845290915290205460ff16611e76576040517fe2b1171b00000000000000000000000000000000000000000000000000000000815260040160405180910390fd5b8082846001600160a01b03167f38caddea36d4bb0fc2e9597e46fd18beb7d9b9508b4a997e438bdb877a17efa442604051611eb391815260200190565b60405180910390a46001600160a01b038316600090815260086020908152604080832085845290915290208054820190556109a483825b604080516001600160a01b03841660208083019190915281830184905242606080840182905284518085039091018152608090930190935281519101206000905b905082846001600160a01b03167f7103c0fab1d2795199d448c2dd3217322f35d816243c3804867062c08250f3f084604051611f6991815260200190565b60405180910390a36000908152600760205260409020805460ff19166001179055505050565b6004546000906001600160a01b031615801590611fad575060143610155b15611fdd57507fffffffffffffffffffffffffffffffffffffffffffffffffffffffffffffffec36013560601c90565b503390565b905090565b611ff182826124d0565b6001600160a01b0390911660009081526009602090815260408220805460018101825590835291200155565b8183856001600160a01b03167f38caddea36d4bb0fc2e9597e46fd18beb7d9b9508b4a997e438bdb877a17efa48460405161205a91815260200190565b60405180910390a46001600160a01b03841660008181526008602090815260408083208784528252808320805487019055805180830194909452838101869052606080850186905281518086039091018152608090940190528251920191909120611c4c91869185918591611f2b565b600061210686856000015186602001516040516020016118b5939291909283526001600160a01b03919091166020830152604082015260600190565b90506121548184848080601f016020809104026020016040519081016040528093929190818152602001838380828437600092019190915250506001600160a01b038a16939291505061240f565b61218a576040517f8baa579f00000000000000000000000000000000000000000000000000000000815260040160405180910390fd5b6020808501516001600160a01b0387166000908152600290925260409091205481146121e2576040517f756688fe00000000000000000000000000000000000000000000000000000000815260040160405180910390fd5b6121ed8160016133f8565b6001600160a01b03909616600090815260026020526040902095909555505050505050565b6001600160a01b03811660009081526006602052604081208190555b6001600160a01b038216600090815260096020526040902054811015612301576001600160a01b0382166000908152600960205260408120805483908110612278576122786132cb565b9060005260206000200154905060096000846001600160a01b03166001600160a01b0316815260200190815260200160002082815481106122bb576122bb6132cb565b600091825260208083209091018290556001600160a01b038516825260058152604080832093835292905220805460ff19169055806122f98161334b565b91505061222e565b506001600160a01b0381166000908152600960205260408120610ae291612998565b606060ff831461233657611dfa83612576565b81805461234290613460565b80601f016020809104026020016040519081016040528092919081815260200182805461236e90613460565b80156123bb5780601f10612390576101008083540402835291602001916123bb565b820191906000526020600020905b81548152906001019060200180831161239e57829003601f168201915b50505050509050610e2c565b6000610e2c6123d46125b5565b836040517f19010000000000000000000000000000000000000000000000000000000000008152600281019290925260228201526042902090565b600080600061241e85856126e0565b909250905060008160048111156124375761243761361b565b1480156124555750856001600160a01b0316826001600160a01b0316145b806124665750612466868686612725565b9695505050505050565b600080829050601f815111156124bd57826040517f305a27a90000000000000000000000000000000000000000000000000000000081526004016124b4919061364a565b60405180910390fd5b80516124c88261365d565b179392505050565b6001600160a01b038216600090815260056020908152604080832084845290915290205460ff1615612500575050565b60405181906001600160a01b038416907f63fe44955cb468eca854578f614830dfddfb533a8adaf26af8c6624fd702d80690600090a36001600160a01b0390911660008181526005602090815260408083208584528252808320805460ff19166001179055928252600690522080549091019055565b6060600061258383612875565b604080516020808252818301909252919250600091906020820181803683375050509182525060208101929092525090565b6000306001600160a01b037f00000000000000000000000000000000000000000000000000000000000000001614801561260e57507f000000000000000000000000000000000000000000000000000000000000000046145b1561263857507f000000000000000000000000000000000000000000000000000000000000000090565b611fe2604080517f8b73c3c69bb8fe3d512ecc4cf759cc79239f7b179b0ffacaa9a75d522b39400f60208201527f0000000000000000000000000000000000000000000000000000000000000000918101919091527f000000000000000000000000000000000000000000000000000000000000000060608201524660808201523060a082015260009060c00160405160208183030381529060405280519060200120905090565b60008082516041036127165760208301516040840151606085015160001a61270a878285856128b6565b9450945050505061271e565b506000905060025b9250929050565b6000806000856001600160a01b0316631626ba7e60e01b868660405160240161274f92919061369f565b604080517fffffffffffffffffffffffffffffffffffffffffffffffffffffffffffffffe08184030181529181526020820180517bffffffffffffffffffffffffffffffffffffffffffffffffffffffff167fffffffff000000000000000000000000000000000000000000000000000000009094169390931790925290516127d89190613444565b600060405180830381855afa9150503d8060008114612813576040519150601f19603f3d011682016040523d82523d6000602084013e612818565b606091505b509150915081801561282c57506020815110155b8015612466575080517f1626ba7e000000000000000000000000000000000000000000000000000000009061286a90830160209081019084016136b8565b149695505050505050565b600060ff8216601f811115610e2c576040517fb3512b0c00000000000000000000000000000000000000000000000000000000815260040160405180910390fd5b6000807f7fffffffffffffffffffffffffffffff5d576e7357a4501ddfe92f46681b20a08311156128ed575060009050600361298f565b6040805160008082526020820180845289905260ff881692820192909252606081018690526080810185905260019060a0016020604051602081039080840390855afa158015612941573d6000803e3d6000fd5b50506040517fffffffffffffffffffffffffffffffffffffffffffffffffffffffffffffffe001519150506001600160a01b0381166129885760006001925092505061298f565b9150600090505b94509492505050565b5080546000825590600052602060002090810190610ae291905b808211156129c657600081556001016129b2565b5090565b80356001600160a01b03811681146129e157600080fd5b919050565b60008083601f8401126129f857600080fd5b50813567ffffffffffffffff811115612a1057600080fd5b6020830191508360208260051b850101111561271e57600080fd5b600080600080600060608688031215612a4357600080fd5b612a4c866129ca565b9450602086013567ffffffffffffffff80821115612a6957600080fd5b612a7589838a016129e6565b90965094506040880135915080821115612a8e57600080fd5b50612a9b888289016129e6565b969995985093965092949392505050565b6020808252825182820181905260009190848201906040850190845b81811015612ae6578351151583529284019291840191600101612ac8565b50909695505050505050565b600080600060608486031215612b0757600080fd5b612b10846129ca565b95602085013595506040909401359392505050565b60008060408385031215612b3857600080fd5b612b41836129ca565b946020939093013593505050565b600060208284031215612b6157600080fd5b612b6a826129ca565b9392505050565b60008060408385031215612b8457600080fd5b612b8d836129ca565b9150612b9b602084016129ca565b90509250929050565b600060208284031215612bb657600080fd5b5035919050565b6000806000806000806000806080898b031215612bd957600080fd5b883567ffffffffffffffff80821115612bf157600080fd5b612bfd8c838d016129e6565b909a50985060208b0135915080821115612c1657600080fd5b612c228c838d016129e6565b909850965060408b0135915080821115612c3b57600080fd5b612c478c838d016129e6565b909650945060608b0135915080821115612c6057600080fd5b50612c6d8b828c016129e6565b999c989b5096995094979396929594505050565b60008060008060008060608789031215612c9a57600080fd5b863567ffffffffffffffff80821115612cb257600080fd5b612cbe8a838b016129e6565b90985096506020890135915080821115612cd757600080fd5b612ce38a838b016129e6565b90965094506040890135915080821115612cfc57600080fd5b50612d0989828a016129e6565b979a9699509497509295939492505050565b600080600080600060608688031215612d3357600080fd5b85359450602086013567ffffffffffffffff80821115612a6957600080fd5b60008060008060008060006080888a031215612d6d57600080fd5b612d76886129ca565b9650602088013567ffffffffffffffff80821115612d9357600080fd5b612d9f8b838c016129e6565b909850965060408a0135915080821115612db857600080fd5b612dc48b838c016129e6565b909650945060608a0135915080821115612ddd57600080fd5b50612dea8a828b016129e6565b989b979a50959850939692959293505050565b600080600060608486031215612e1257600080fd5b505081359360208301359350604090920135919050565b7f4e487b7100000000000000000000000000000000000000000000000000000000600052604160045260246000fd5b60008083601f840112612e6a57600080fd5b50813567ffffffffffffffff811115612e8257600080fd5b60208301915083602082850101111561271e57600080fd5b6000806000808486036080811215612eb157600080fd5b6040811215612ebf57600080fd5b506040516040810167ffffffffffffffff8282108183111715612ee457612ee4612e29565b81604052612ef1886129ca565b835260208801356020840152829650612f0c604089016129ca565b95506060880135925080831115612f2257600080fd5b5050612f3087828801612e58565b95989497509550505050565b60005b83811015612f57578181015183820152602001612f3f565b50506000910152565b60008151808452612f78816020860160208601612f3c565b601f017fffffffffffffffffffffffffffffffffffffffffffffffffffffffffffffffe0169290920160200192915050565b7fff00000000000000000000000000000000000000000000000000000000000000881681526000602060e081840152612fe660e084018a612f60565b8381036040850152612ff8818a612f60565b606085018990526001600160a01b038816608086015260a0850187905284810360c0860152855180825283870192509083019060005b8181101561304a5783518352928401929184019160010161302e565b50909c9b505050505050505050505050565b60006020828403121561306e57600080fd5b813565ffffffffffff81168114612b6a57600080fd5b6000806040838503121561309757600080fd5b50508035926020909101359150565b600080600080600080608087890312156130bf57600080fd5b6130c8876129ca565b955060208701359450604087013567ffffffffffffffff808211156130ec57600080fd5b6130f88a838b016129e6565b90965094506060890135915080821115612cfc57600080fd5b60008060006040848603121561312657600080fd5b833567ffffffffffffffff8082111561313e57600080fd5b908501906060828803121561315257600080fd5b9093506020850135908082111561316857600080fd5b5061317586828701612e58565b9497909650939450505050565b6000806000806060858703121561319857600080fd5b6131a1856129ca565b935060208501359250604085013567ffffffffffffffff8111156131c457600080fd5b612f30878288016129e6565b82151581526040602082015260006131eb6040830184612f60565b949350505050565b6000806000806080858703121561320957600080fd5b613212856129ca565b966020860135965060408601359560600135945092505050565b60008060006040848603121561324157600080fd5b83359250602084013567ffffffffffffffff81111561325f57600080fd5b613175868287016129e6565b6000806000806040858703121561328157600080fd5b843567ffffffffffffffff8082111561329957600080fd5b6132a5888389016129e6565b909650945060208701359150808211156132be57600080fd5b50612f30878288016129e6565b7f4e487b7100000000000000000000000000000000000000000000000000000000600052603260045260246000fd5b60006020828403121561330c57600080fd5b81518015158114612b6a57600080fd5b7f4e487b7100000000000000000000000000000000000000000000000000000000600052601160045260246000fd5b60007fffffffffffffffffffffffffffffffffffffffffffffffffffffffffffffffff820361337c5761337c61331c565b5060010190565b60008083357fffffffffffffffffffffffffffffffffffffffffffffffffffffffffffffffe18436030181126133b857600080fd5b83018035915067ffffffffffffffff8211156133d357600080fd5b60200191503681900382131561271e57600080fd5b8183823760009101908152919050565b80820180821115610e2c57610e2c61331c565b8284823760609190911b7fffffffffffffffffffffffffffffffffffffffff000000000000000000000000169101908152601401919050565b60008251613456818460208701612f3c565b9190910192915050565b600181811c9082168061347457607f821691505b6020821081036134ad577f4e487b7100000000000000000000000000000000000000000000000000000000600052602260045260246000fd5b50919050565b601f8211156109a457600081815260208120601f850160051c810160208610156134da5750805b601f850160051c820191505b818110156134f9578281556001016134e6565b505050505050565b815167ffffffffffffffff81111561351b5761351b612e29565b61352f816135298454613460565b846134b3565b602080601f831160018114613582576000841561354c5750858301515b7fffffffffffffffffffffffffffffffffffffffffffffffffffffffffffffffff600386901b1c1916600185901b1785556134f9565b6000858152602081207fffffffffffffffffffffffffffffffffffffffffffffffffffffffffffffffe08616915b828110156135cf578886015182559484019460019091019084016135b0565b508582101561360b57878501517fffffffffffffffffffffffffffffffffffffffffffffffffffffffffffffffff600388901b60f8161c191681555b5050505050600190811b01905550565b7f4e487b7100000000000000000000000000000000000000000000000000000000600052602160045260246000fd5b602081526000612b6a6020830184612f60565b805160208083015191908110156134ad577fffffffffffffffffffffffffffffffffffffffffffffffffffffffffffffffff60209190910360031b1b16919050565b8281526040602082015260006131eb6040830184612f60565b6000602082840312156136ca57600080fd5b505191905056fea264697066735822122018cab44ff6ea6bdf721280f5611ebf5fd219f454f490d35f6ca925a1f519b88964736f6c63430008110033",
  "linkReferences": {},
  "deployedLinkReferences": {}
}